{
  "transactions": [
    {
      "hash": "0xdb671fb1b011f13da57d04589ca7b7cac00c367c41a8bb7580f8dec2ed6a023b",
      "transactionType": "CALL",
      "contractName": "CREATE3Factory",
      "contractAddress": "0x9fBB3DF7C40Da2e5A0dE984fFE2CCB7C47cd0ABf",
      "function": "deploy(bytes32,bytes)",
      "arguments": [
        "0x7363555344540000000000000000000000000000000000000000000000000000",
        "0x608060405234801561001057600080fd5b50610c69806100206000396000f3fe608060405234801561001057600080fd5b506004361061007d5760003560e01c80633a8924521161005b5780633a892452146101035780634fcf517314610116578063c31c9c0714610129578063dd1b9c4a1461014357600080fd5b80630d24be5914610082578063327107f7146100a857806338d52e0f146100e8575b600080fd5b610095610090366004610a0a565b610160565b6040519081526020015b60405180910390f35b6100c373c02aaa39b223fe8d0a0e5c4f27ead9083c756cc281565b60405173ffffffffffffffffffffffffffffffffffffffff909116815260200161009f565b6100c373dac17f958d2ee523a2206206994597c13d831ec781565b610095610111366004610a4c565b610231565b610095610124366004610af2565b610261565b731231deb6f5749ef6ce6943a275a1d3e7486f4eae6100c3565b61014c6101f481565b60405162ffffff909116815260200161009f565b6040517f70a08231000000000000000000000000000000000000000000000000000000008152306004820152600090819073dac17f958d2ee523a2206206994597c13d831ec7906370a0823190602401602060405180830381865afa1580156101cd573d6000803e3d6000fd5b505050506040513d601f19601f820116820180604052508101906101f19190610b14565b905061022a73dac17f958d2ee523a2206206994597c13d831ec773c02aaa39b223fe8d0a0e5c4f27ead9083c756cc285846101f461029a565b9392505050565b6000610256731231deb6f5749ef6ce6943a275a1d3e7486f4eae8888888888886103ed565b979650505050505050565b600061022a73c02aaa39b223fe8d0a0e5c4f27ead9083c756cc273dac17f958d2ee523a2206206994597c13d831ec785856101f4610677565b604080516101008101825273ffffffffffffffffffffffffffffffffffffffff808816808352908716602083015262ffffff84169282019290925230606082015242608082015260a0810185905260c08101849052600060e08201819052916103189073e592427a0aece92de3edee1f18e0157c0586156486610797565b6040517fdb3e219800000000000000000000000000000000000000000000000000000000815273e592427a0aece92de3edee1f18e0157c058615649063db3e219890610368908490600401610b2d565b6020604051808303816000875af1158015610387573d6000803e3d6000fd5b505050506040513d601f19601f820116820180604052508101906103ab9190610b14565b91506103e373ffffffffffffffffffffffffffffffffffffffff881673e592427a0aece92de3edee1f18e0157c058615646000610797565b5095945050505050565b6040517f70a08231000000000000000000000000000000000000000000000000000000008152306004820152600090819073ffffffffffffffffffffffffffffffffffffffff8816906370a0823190602401602060405180830381865afa15801561045c573d6000803e3d6000fd5b505050506040513d601f19601f820116820180604052508101906104809190610b14565b90506104a373ffffffffffffffffffffffffffffffffffffffff89168a88610797565b6104fa84848080601f0160208091040260200160405190810160405280939291908181526020018383808284376000920191909152505073ffffffffffffffffffffffffffffffffffffffff8d169291505061085b565b506040517f70a08231000000000000000000000000000000000000000000000000000000008152306004820152819073ffffffffffffffffffffffffffffffffffffffff8916906370a0823190602401602060405180830381865afa158015610567573d6000803e3d6000fd5b505050506040513d601f19601f8201168201806040525081019061058b9190610b14565b6105959190610ba8565b9150848210156105d1576040517f014554a300000000000000000000000000000000000000000000000000000000815260040160405180910390fd5b6040517f095ea7b300000000000000000000000000000000000000000000000000000000815273ffffffffffffffffffffffffffffffffffffffff8a811660048301526000602483015289169063095ea7b3906044016020604051808303816000875af1158015610646573d6000803e3d6000fd5b505050506040513d601f19601f8201168201806040525081019061066a9190610be2565b5050979650505050505050565b60006106ae73ffffffffffffffffffffffffffffffffffffffff871673e592427a0aece92de3edee1f18e0157c0586156486610797565b604080516101008101825273ffffffffffffffffffffffffffffffffffffffff80891682528716602082015262ffffff84168183015230606082015242608082015260a0810186905260c08101859052600060e082015290517f414bf38900000000000000000000000000000000000000000000000000000000815273e592427a0aece92de3edee1f18e0157c058615649063414bf38990610754908490600401610b2d565b6020604051808303816000875af1158015610773573d6000803e3d6000fd5b505050506040513d601f19601f820116820180604052508101906102569190610b14565b60006040517f095ea7b3000000000000000000000000000000000000000000000000000000008152836004820152826024820152602060006044836000895af13d15601f3d1160016000511416171691505080610855576040517f08c379a000000000000000000000000000000000000000000000000000000000815260206004820152600e60248201527f415050524f56455f4641494c454400000000000000000000000000000000000060448201526064015b60405180910390fd5b50505050565b606061022a8383600061086f565b92915050565b6060814710156108b4576040517fcf4791810000000000000000000000000000000000000000000000000000000081524760048201526024810183905260440161084c565b6000808573ffffffffffffffffffffffffffffffffffffffff1684866040516108dd9190610c04565b60006040518083038185875af1925050503d806000811461091a576040519150601f19603f3d011682016040523d82523d6000602084013e61091f565b606091505b509150915061092f868383610939565b9695505050505050565b60608261094e57610949826109c8565b61022a565b8151158015610972575073ffffffffffffffffffffffffffffffffffffffff84163b155b156109c1576040517f9996b31500000000000000000000000000000000000000000000000000000000815273ffffffffffffffffffffffffffffffffffffffff8516600482015260240161084c565b508061022a565b8051156109d85780518082602001fd5b6040517fd6bda27500000000000000000000000000000000000000000000000000000000815260040160405180910390fd5b600060208284031215610a1c57600080fd5b5035919050565b803573ffffffffffffffffffffffffffffffffffffffff81168114610a4757600080fd5b919050565b60008060008060008060a08789031215610a6557600080fd5b610a6e87610a23565b9550610a7c60208801610a23565b94506040870135935060608701359250608087013567ffffffffffffffff80821115610aa757600080fd5b818901915089601f830112610abb57600080fd5b813581811115610aca57600080fd5b8a6020828501011115610adc57600080fd5b6020830194508093505050509295509295509295565b60008060408385031215610b0557600080fd5b50508035926020909101359150565b600060208284031215610b2657600080fd5b5051919050565b6101008101610869828473ffffffffffffffffffffffffffffffffffffffff80825116835280602083015116602084015262ffffff60408301511660408401528060608301511660608401526080820151608084015260a082015160a084015260c082015160c08401528060e08301511660e0840152505050565b81810381811115610869577f4e487b7100000000000000000000000000000000000000000000000000000000600052601160045260246000fd5b600060208284031215610bf457600080fd5b8151801515811461022a57600080fd5b6000825160005b81811015610c255760208186018101518583015201610c0b565b50600092019182525091905056fea2646970667358221220b67d8fd18dbcc499364e993ccd2ee76ed824b9bfd247b1a087db364578e3060064736f6c63430008150033"
      ],
      "transaction": {
        "from": "0x3Ab6EBDBf08e1954e69F6859AdB2DA5236D2e838",
        "to": "0x9fBB3DF7C40Da2e5A0dE984fFE2CCB7C47cd0ABf",
        "gas": "0x107089",
        "value": "0x0",
        "input": "0xcdcb760a736355534454000000000000000000000000000000000000000000000000000000000000000000000000000000000000000000000000000000000000000000400000000000000000000000000000000000000000000000000000000000000c89608060405234801561001057600080fd5b50610c69806100206000396000f3fe608060405234801561001057600080fd5b506004361061007d5760003560e01c80633a8924521161005b5780633a892452146101035780634fcf517314610116578063c31c9c0714610129578063dd1b9c4a1461014357600080fd5b80630d24be5914610082578063327107f7146100a857806338d52e0f146100e8575b600080fd5b610095610090366004610a0a565b610160565b6040519081526020015b60405180910390f35b6100c373c02aaa39b223fe8d0a0e5c4f27ead9083c756cc281565b60405173ffffffffffffffffffffffffffffffffffffffff909116815260200161009f565b6100c373dac17f958d2ee523a2206206994597c13d831ec781565b610095610111366004610a4c565b610231565b610095610124366004610af2565b610261565b731231deb6f5749ef6ce6943a275a1d3e7486f4eae6100c3565b61014c6101f481565b60405162ffffff909116815260200161009f565b6040517f70a08231000000000000000000000000000000000000000000000000000000008152306004820152600090819073dac17f958d2ee523a2206206994597c13d831ec7906370a0823190602401602060405180830381865afa1580156101cd573d6000803e3d6000fd5b505050506040513d601f19601f820116820180604052508101906101f19190610b14565b905061022a73dac17f958d2ee523a2206206994597c13d831ec773c02aaa39b223fe8d0a0e5c4f27ead9083c756cc285846101f461029a565b9392505050565b6000610256731231deb6f5749ef6ce6943a275a1d3e7486f4eae8888888888886103ed565b979650505050505050565b600061022a73c02aaa39b223fe8d0a0e5c4f27ead9083c756cc273dac17f958d2ee523a2206206994597c13d831ec785856101f4610677565b604080516101008101825273ffffffffffffffffffffffffffffffffffffffff808816808352908716602083015262ffffff84169282019290925230606082015242608082015260a0810185905260c08101849052600060e08201819052916103189073e592427a0aece92de3edee1f18e0157c0586156486610797565b6040517fdb3e219800000000000000000000000000000000000000000000000000000000815273e592427a0aece92de3edee1f18e0157c058615649063db3e219890610368908490600401610b2d565b6020604051808303816000875af1158015610387573d6000803e3d6000fd5b505050506040513d601f19601f820116820180604052508101906103ab9190610b14565b91506103e373ffffffffffffffffffffffffffffffffffffffff881673e592427a0aece92de3edee1f18e0157c058615646000610797565b5095945050505050565b6040517f70a08231000000000000000000000000000000000000000000000000000000008152306004820152600090819073ffffffffffffffffffffffffffffffffffffffff8816906370a0823190602401602060405180830381865afa15801561045c573d6000803e3d6000fd5b505050506040513d601f19601f820116820180604052508101906104809190610b14565b90506104a373ffffffffffffffffffffffffffffffffffffffff89168a88610797565b6104fa84848080601f0160208091040260200160405190810160405280939291908181526020018383808284376000920191909152505073ffffffffffffffffffffffffffffffffffffffff8d169291505061085b565b506040517f70a08231000000000000000000000000000000000000000000000000000000008152306004820152819073ffffffffffffffffffffffffffffffffffffffff8916906370a0823190602401602060405180830381865afa158015610567573d6000803e3d6000fd5b505050506040513d601f19601f8201168201806040525081019061058b9190610b14565b6105959190610ba8565b9150848210156105d1576040517f014554a300000000000000000000000000000000000000000000000000000000815260040160405180910390fd5b6040517f095ea7b300000000000000000000000000000000000000000000000000000000815273ffffffffffffffffffffffffffffffffffffffff8a811660048301526000602483015289169063095ea7b3906044016020604051808303816000875af1158015610646573d6000803e3d6000fd5b505050506040513d601f19601f8201168201806040525081019061066a9190610be2565b5050979650505050505050565b60006106ae73ffffffffffffffffffffffffffffffffffffffff871673e592427a0aece92de3edee1f18e0157c0586156486610797565b604080516101008101825273ffffffffffffffffffffffffffffffffffffffff80891682528716602082015262ffffff84168183015230606082015242608082015260a0810186905260c08101859052600060e082015290517f414bf38900000000000000000000000000000000000000000000000000000000815273e592427a0aece92de3edee1f18e0157c058615649063414bf38990610754908490600401610b2d565b6020604051808303816000875af1158015610773573d6000803e3d6000fd5b505050506040513d601f19601f820116820180604052508101906102569190610b14565b60006040517f095ea7b3000000000000000000000000000000000000000000000000000000008152836004820152826024820152602060006044836000895af13d15601f3d1160016000511416171691505080610855576040517f08c379a000000000000000000000000000000000000000000000000000000000815260206004820152600e60248201527f415050524f56455f4641494c454400000000000000000000000000000000000060448201526064015b60405180910390fd5b50505050565b606061022a8383600061086f565b92915050565b6060814710156108b4576040517fcf4791810000000000000000000000000000000000000000000000000000000081524760048201526024810183905260440161084c565b6000808573ffffffffffffffffffffffffffffffffffffffff1684866040516108dd9190610c04565b60006040518083038185875af1925050503d806000811461091a576040519150601f19603f3d011682016040523d82523d6000602084013e61091f565b606091505b509150915061092f868383610939565b9695505050505050565b60608261094e57610949826109c8565b61022a565b8151158015610972575073ffffffffffffffffffffffffffffffffffffffff84163b155b156109c1576040517f9996b31500000000000000000000000000000000000000000000000000000000815273ffffffffffffffffffffffffffffffffffffffff8516600482015260240161084c565b508061022a565b8051156109d85780518082602001fd5b6040517fd6bda27500000000000000000000000000000000000000000000000000000000815260040160405180910390fd5b600060208284031215610a1c57600080fd5b5035919050565b803573ffffffffffffffffffffffffffffffffffffffff81168114610a4757600080fd5b919050565b60008060008060008060a08789031215610a6557600080fd5b610a6e87610a23565b9550610a7c60208801610a23565b94506040870135935060608701359250608087013567ffffffffffffffff80821115610aa757600080fd5b818901915089601f830112610abb57600080fd5b813581811115610aca57600080fd5b8a6020828501011115610adc57600080fd5b6020830194508093505050509295509295509295565b60008060408385031215610b0557600080fd5b50508035926020909101359150565b600060208284031215610b2657600080fd5b5051919050565b6101008101610869828473ffffffffffffffffffffffffffffffffffffffff80825116835280602083015116602084015262ffffff60408301511660408401528060608301511660608401526080820151608084015260a082015160a084015260c082015160c08401528060e08301511660e0840152505050565b81810381811115610869577f4e487b7100000000000000000000000000000000000000000000000000000000600052601160045260246000fd5b600060208284031215610bf457600080fd5b8151801515811461022a57600080fd5b6000825160005b81811015610c255760208186018101518583015201610c0b565b50600092019182525091905056fea2646970667358221220b67d8fd18dbcc499364e993ccd2ee76ed824b9bfd247b1a087db364578e3060064736f6c634300081500330000000000000000000000000000000000000000000000",
        "nonce": "0x5",
        "chainId": "0x1"
      },
      "additionalContracts": [],
      "isFixedGasLimit": false
    }
  ],
  "receipts": [
    {
      "status": "0x1",
      "cumulativeGasUsed": "0xbe7b4",
      "logs": [],
      "logsBloom": "0x00000000000000000000000000000000000000000000000000000000000000000000000000000000000000000000000000000000000000000000000000000000000000000000000000000000000000000000000000000000000000000000000000000000000000000000000000000000000000000000000000000000000000000000000000000000000000000000000000000000000000000000000000000000000000000000000000000000000000000000000000000000000000000000000000000000000000000000000000000000000000000000000000000000000000000000000000000000000000000000000000000000000000000000000000000000",
      "type": "0x0",
      "transactionHash": "0xdb671fb1b011f13da57d04589ca7b7cac00c367c41a8bb7580f8dec2ed6a023b",
      "transactionIndex": "0x0",
      "blockHash": "0x57ecf39de78342365521dd99dfb2be54a202a66c83c29adf05419e7b290c4da0",
      "blockNumber": "0x13f34c5",
      "gasUsed": "0xbe7b4",
      "effectiveGasPrice": "0x20fb232a3",
      "from": "0x3Ab6EBDBf08e1954e69F6859AdB2DA5236D2e838",
      "to": "0x9fBB3DF7C40Da2e5A0dE984fFE2CCB7C47cd0ABf",
      "contractAddress": null,
      "root": "0x0000000000000000000000000000000000000000000000000000000000000000"
    }
  ],
  "libraries": [],
  "pending": [],
  "returns": {},
  "timestamp": 1728380701,
  "chain": 1,
  "commit": "0c204b0"
}